:100000000000022099010000954B0000594B0000B0
:10001000594B0000594B0000594B0000594B000050
:10002000594B0000594B0000594B0000954B000004
:10003000954B0000594B0000954B0000494B0000C8
:10004000954B0000954B0000954B0000954B000030
:10005000954B0000954B0000954B0000954B000020
:10006000954B0000954B0000954B0000954B000010
:10007000954B0000954B0000954B0000954B000000
:10008000954B0000954B0000954B0000954B0000F0
:10009000954B0000954B0000954B0000954B0000E0
:1000A000954B0000954B0000954B0000954B0000D0
:1000B000954B0000954B0000954B0000B15200009D
:1000C000954B0000555A0000954B0000DD5F000085
:1000D000954B000009660000954B0000954B000011
:1000E000954B0000954B0000954B0000954B000090
:1000F000954B0000954B0000954B0000954B000080
:10010000954B0000954B0000954B0000954B00006F
:10011000954B0000F13D0000954B0000954B000011
:10012000954B0000954B0000954B0000954B00004F
:10013000954B0000954B0000954B0000954B00003F
:10014000954B0000954B0000596B0000954B00004B
:10015000A9700000954B0000954B0000954B0000E6
:10016000954B0000954B0000954B0000954B00000F
:10017000954B0000954B0000954B0000954B0000FF
:10018000954B0000954B0000954B0000954B0000EF
:10019000954B0000954B0000584B4CF2205210B587
:1001A0001A804DF628121A8000BF00BF04F0F6FC3A
:1001B000534B4FF030621A60524A9A60524ADA60EA
:1001C000524B4FF470021A60514B1A6812F480724D
:1001D00004D150490A604FF4A8521A604E4B1A7865
:1001E000110703D51A7842F008021A704B4B4C4C99
:1001F0004C482A221A704C4A00239918A14203D273
:10020000195899500433F8E7484B494900228B426A
:1002100002D243F8042BFAE74648474900235A58CC
:100220001A500433B3F5CC7FF9D1444B444A8021B2
:1002300003F8011B9342FBD1424B3E4A1A60424BEA
:100240008A221A70A3F5805324225A70A0221A70B1
:100250009A799207FCD59A79D406FCD43B4A9379D3
:1002600003F00C03082B394BF9D103221A714622F3
:100270005A719A799006FCD5344A9179334B4906E4
:10028000FBD5334A4FF08271116009215160202261
:100290001A709A7902F00C020C2AFAD12D4B2E4AD0
:1002A0001A602E4B2E4A1A6000225A60072243F829
:1002B000042C2C4AC3F80C2D62B603F03BFC154B02
:1002C0001B68DA0705D5284803F078FB274B284A36
:1002D0001A60284B1B785B0609D5244C244A2368F6
:1002E000934204D1204803F069FB0023236007F008
:1002F0005FFB04F059FC04F0E5FAFEE70E20054030
:1003000030800440823F04000100002B88ED00E0B3
:1003100010D0034014D0034002D0074000E0074053
:100320005410FF1F90B600006007FF1F5410FF1FFE
:100330001816FF1F0002FF1F0000000000E400E08D
:1003400056E400E008ED00E00050064000400640A2
:100350004480044004800440C010050014E000E024
:10036000BFD401000000202049E2D2041CE0034079
:10037000A5C3945A00F00740FFFFFFFFFFFFFFFFF8
:10038000FFFFFFFFFFFFFFFFFFFFFFFFFFFFFFFF7D
:10039000FFFFFFFFFFFFFFFFFFFFFFFFFFFFFFFF6D
:1003A000FFFFFFFFFFFFFFFFFFFFFFFFFFFFFFFF5D
:1003B000FFFFFFFFFFFFFFFFFFFFFFFFFFFFFFFF4D
:1003C000FFFFFFFFFFFFFFFFFFFFFFFFFFFFFFFF3D
:1003D000FFFFFFFFFFFFFFFFFFFFFFFFFFFFFFFF2D
:1003E000FFFFFFFFFFFFFFFFFFFFFFFFFFFFFFFF1D
:1003F000FFFFFFFFFFFFFFFFFFFFFFFFFFFFFFFF0D
:10040000FFFFFFFFFFFFFFFFFFFFFFFFDEF9FFFF23
:1004100010B5054C237833B9044B13B10448AFF33E
:1004200000800123237010BD5410FF1F0000000046
:1004300090B6000008B5064B1BB106480649AFF35D
:1004400000800648036813B1054B03B1984708BD07
:100450000000000090B600005810FF1F5410FF1F4E
:1004600000000000704700BF38B505460C46134633
:1004700002482946224600F02BF938BD7010FF1FB4
:1004800070B5F8B0524C20464FF4FA6101F0D8FF35
:10049000204650494FF4E13201F0AEFF204601F012
:1004A000A5FF606B03685B684B49112298470A20DF
:1004B00003F02AFB20460021012202F015F84748EC
:1004C0004749F0224FF4A07302F01AF8454C204639
:1004D00000F07EFD2046002100F06AFD1BA828A93F
:1004E0000A22414B02F0A6FD1BA8404902F008FE7B
:1004F0003F4C1BA8214602F013FE0A2500956E26EC
:1005000001963C2302931BA809A900222B4603F065
:1005100033F9502300930196822302931BA80FA95D
:1005200001222B4603F028F9962300930196C82652
:1005300002961BA815A902222B4603F01DF91BA841
:100540000021224603F08EF91BA800214AF2451231
:1005500003F060F91BA80021264A03F06FF91BA8DD
:100560000121224603F07EF91BA80121224A03F053
:1005700065F91BA80221224603F074F91BA8022189
:100580001E4A03F05BF900954FF49B7301930296AA
:100590001BA804A90022782303F078F91BA80021E6
:1005A000224603F0E3F91BA80021154A03F0CAF91B
:1005B0001BA800210A4603F0B1F91BA80021122252
:1005C00003F0E8F91BA802F089FD78B070BD00BF08
:1005D0001411FF1F5412FF1F048300009410FF1F0B
:1005E000690400007010FF1F6504000018830000FC
:1005F0002C8900002C830000388300004483000015
:100600005083000008B503F061F808BD00B585B05F
:100610000B2300930D2301930C23029304480A211A
:100620000922082300F02CF805B05DF804FB00BF98
:100630007010FF1FF0B4074600204FF0010CCB08EC
:10064000FC5C01F00703C3F108039A420BD300FAE4
:1006500003F50CFA03F6013E344044EA0500194460
:10066000D21AECD10AE090409B1A44FA03F301211C
:1006700001FA02F2013A1340DBB21843F0BC7047B2
:1006800070B400250571114E0660417782770377BB
:100690009DF80C3080F822309DF8103080F823301F
:1006A0009DF8143080F82130F023C3804FF4A073FC
:1006B0000381C57445818581012383744FF6FF72E0
:1006C0000282C2810375856170BC7047C8880000D2
:1006D00070B40029C0F20881B0F906408C4240F3A2
:1006E0000381002AC0F20081B0F90840944240F32F
:1006F000FB807E4C2478002C28D072B67B4C24786A
:1007000014F0010F07D07A4C26687A4D2D683540D9
:10071000794E35602560754C247814F0020F07D0AF
:10072000764C2668734D6D683540734E7560256054
:100730006E4C247814F0040F07D0714C26686D4D70
:10074000AD6835406C4EB560256062B66D4CE468AE
:10075000B4F1384F0AD06B4C6B4D25604FF03845E3
:10076000E5604FF078452561684D25608EB292B204
:1007700090F82010090441F0004141F02A01614C39
:100780006163E16A11F0F00F18BFA56B01F47041CD
:10079000B1F5405FF5D8C47F46EA044444F0104404
:1007A00058494C630C46E16A11F0F00F18BFA56B75
:1007B00001F47041B1F5405FF5D8C17F46EA0146CA
:1007C00046F010464F494E630C46E16A11F0F00FB7
:1007D00018BFA56B01F47041B1F5405FF5D890F8F2
:1007E0002010090441F0004141F02B01454C6163A8
:1007F000E16A11F0F00F18BFA56B01F47041B1F57B
:10080000405FF5D8C47F42EA044444F010443D49B7
:100810004C630C46E16A11F0F00F18BFA56B01F4B0
:100820007041B1F5405FF5D8C17F42EA014242F024
:10083000104234494A63CA6A12F0F00F18BF8C6B39
:1008400002F47042B2F5405FF5D890F8202012040F
:1008500042F0004242F02C022A494A63CA6A12F06E
:10086000F00F18BF8C6B02F47042B2F5405FF5D800
:10087000244A1168C07F43EA004343F0C0535363E6
:10088000D36A13F0805F04D113F0F00FF8D0936BAC
:10089000F6E71C4B4FF08052DA621960DB6A13F006
:1008A000F00F05D0174B9A6BDA6A12F0F00FFAD1FD
:1008B0000E4B1B78C3B113F0010F03D00E4B1A6817
:1008C000134B1A60094B1B7813F0020F03D00A4B2D
:1008D0005A68104B1A60054B1B7813F0040F03D0B5
:1008E000054B9A680C4B1A6070BC70471011FF1FC3
:1008F00080E100E0F810FF1F0411FF1F84E100E019
:1009000088E100E000C0024001401F0000001F809D
:1009100000E100E004E100E008E100E0F0B4BDF82F
:100920001040C68837B28F4240F32F81B0F908508B
:10093000954240F32A81002AC0F22781002902DA79
:100940000B441BB20021CF18013F35B2AF42A4BF08
:10095000C1EB06031BB28E4D2D78002D28D072B648
:100960008B4D2D7815F0010F07D08A4D2F688A4ED8
:1009700036683E40894F3E602E60854D2D7815F0DB
:10098000020F07D0864D2F68834E76683E40834F16
:100990007E602E607E4D2D7815F0040F07D0814DBE
:1009A0002F687D4EB6683E407C4FBE602E6062B6BA
:1009B0007D4DED68B5F1384F0AD07B4D7B4E2E60F2
:1009C0004FF03846EE604FF078462E61784E2E603C
:1009D0001FFA81FC9DB20CF1FF372F44BFB292B2D7
:1009E00090F820301B0443F0004343F02A036E4983
:1009F0004B63CB6A13F0F00F18BF8E6B03F4704398
:100A0000B3F5405FF5D8C17F4CEA014141F0104198
:100A1000654B59631946CB6A13F0F00F18BF8E6B04
:100A200003F47043B3F5405FF5D8C17F47EA014155
:100A300041F010415C4B59631946CB6A13F0F00F3B
:100A400018BF8E6B03F47043B3F5405FF5D890F890
:100A500020301B0443F0004343F02B0352494B6307
:100A6000CB6A13F0F00F18BF8E6B03F47043B3F52D
:100A7000405FF5D8C17F42EA014141F010414A4B45
:100A800059631946CB6A13F0F00F18BF8E6B03F44D
:100A90007043B3F5405FF5D8C37F42EA034242F0AA
:100AA0001042414B5A631A46D36A13F0F00F18BF35
:100AB000916B03F47043B3F5405FF5D890F82030A4
:100AC0001B0443F0004343F02C03374A5363D36ABB
:100AD00013F0F00F18BF916B03F47043B3F5405F50
:100AE000F5D8314A11E0C37F44EA034343F0104391
:100AF0005363D36A13F0F00F18BF916B03F4704384
:100B0000B3F5405FF5D8013DADB22BB2012BEADC65
:100B1000254B1968C27F44EA024242F0C0525A6330
:100B20001A46D36A13F0805F04D113F0F00FF8D0A7
:100B3000936BF6E71C4B4FF08052DA621960DB6A68
:100B400013F0F00F05D0184B9A6BDA6A12F0F00F21
:100B5000FAD10F4B1B78C3B113F0010F03D00F4B29
:100B60001A68144B1A600A4B1B7813F0020F03D05B
:100B70000A4B5A68104B1A60054B1B7813F0040F90
:100B800003D0064B9A680D4B1A60F0BC704700BF4B
:100B90001011FF1F80E100E0F810FF1F0411FF1F7C
:100BA00084E100E088E100E000C0024001401F0055
:100BB00000001F8000E100E004E100E008E100E047
:100BC0002DE9F00FBDF92070BDF82460C48825B26E
:100BD0008D4240F3D98105890FFA85FC944540F395
:100BE000D381002902DA0B441BB20021002A02DA69
:100BF00017443FB2002201EB030808F1FF380FFA57
:100C000084FCE045A4BFC1EB04031BB202EB070C5C
:100C10000CF1FF3C2CB2A445A4BFC2EB05052FB2DA
:100C2000874C2478002C34D072B6854C247814F08C
:100C3000010F0BD0834CD4F800C0834D2D680CEA13
:100C40000505DFF81CC2CCF8005025607C4C2478E8
:100C500014F0020F0BD07D4CD4F800C07A4D6D68B3
:100C60000CEA0505DFF8F8C1CCF804502560744C97
:100C7000247814F0040F0BD0754CD4F800C0724DDA
:100C8000AD680CEA0505DFF8D8C1CCF8085025603E
:100C900062B6704CE468B4F1384F0AD06D4C6E4DBA
:100CA00025604FF03845E5604FF0784525616B4D84
:100CB00025601FFA81F808F1FF3C9C441FFA8CFC68
:100CC00094B2611E394489B290F82020120442F097
:100CD000004242F02A025F4D6A639946EA6A12F0C6
:100CE000F00F18BFAB6B02F47042B2F5405FF5D85D
:100CF0004B46C57F48EA054545F01045554A5563C2
:100D00001546C846EA6A12F0F00F18BFAB6B02F442
:100D10007042B2F5405FF5D84346C57F4CEA0545C1
:100D200045F010454B4A55631546C446EA6A12F031
:100D3000F00F18BFAB6B02F47042B2F5405FF5D80C
:100D4000634690F82020120442F0004242F02B0249
:100D5000404D6A63EA6A12F0F00F18BFAB6B02F401
:100D60007042B2F5405FF5D86346C27F44EA024460
:100D700044F01044374A54631446E26A12F0F00F0C
:100D800018BFA56B02F47042B2F5405FF5D8C27F80
:100D900041EA024141F010412E4A51631146CA6AAC
:100DA00012F0F00F18BF8C6B02F47042B2F5405F86
:100DB000F5D890F82020120442F0004242F02C02B4
:100DC00024494A63CA6A12F0F00F18BF8C6B02F410
:100DD0007042B2F5405FF5D8002F40F3B9801D494D
:100DE000DFF85CC0DFF868A0DFF86090DFF85480BF
:100DF000DFF870B0A7E0C27F46EA024242F010423C
:100E00004A63CA6A12F0F00F18BF8D6B02F4704289
:100E1000B2F5405FF5D8013C24B2012CEBD10C684F
:100E2000C27F46EA024242F0C0524A63CA6A12F0E6
:100E3000805F19D112F0F00FF8D08A6BF6E700BF8F
:100E40001011FF1F80E100E0F810FF1F84E100E0B7
:100E500088E100E000C0024001401F0000001F8048
:100E60000411FF1F08E100E04FF08052CA620C60DD
:100E7000CA6A12F0F00F04D08A6BCA6A12F0F00F3F
:100E8000FAD1012F5CDD17F0010F59D09CF800203A
:100E9000002A47D012F0010F03D03D4A14683D4AA2
:100EA00014609CF8002012F0020F03D0384A5268F8
:100EB000394C22609CF8002012F0040F03D0344A11
:100EC0009268CBF800209CF800205AB372B69CF8C8
:100ED000002012F0010F08D0D8F800402F4A126805
:100EE00022402B4C2260C8F800209CF8002012F011
:100EF000020F08D0D9F80040284A52682240244CFA
:100F00006260C9F800209CF8002012F0040F08D09D
:100F1000DAF80040214A926822401D4CA260CAF8CB
:100F2000002062B6CA68B2F1384F09D01C4A0A6084
:100F30004FF03842CA604FF078420A61194A0A609D
:100F4000013F3FB227B1012B7FF769AF1C4652E743
:100F5000154B1B78C3B113F0010F03D00C4B1A686B
:100F60000C4B1A60104B1B7813F0020F03D0084B88
:100F70005A68094B1A600C4B1B7813F0040F03D00E
:100F8000034B9A68094B1A60BDE8F00F704700BF29
:100F90000411FF1F00E100E004E100E0F810FF1F72
:100FA00001401F0000001F801011FF1F08E100E03A
:100FB00000B583B0B0F90630B0F908200092019175
:100FC00000210A46FFF7FCFD03B05DF804FB00BFFB
:100FD00070B5054690F822300B2B04D0072B02D0B9
:100FE0001C2B40F07A8295F8212002F0FB010829A1
:100FF00002D0272A40F0718295F82320A2F10D013A
:10100000C9B2012902D91B2A40F06782A84A117887
:101010000B2B02D101F0FC020DE0072B04D121F0D3
:10102000030242F0010206E01C2B06BF21F003027E
:1010300042F002020A469F4B1B6813F4805F25D0E2
:10104000914240F0328221E04FF4A2719A4B196034
:1010500008E04FF4A271994B196003E04FF4A271BC
:10106000974B196012F0030302D0012B05D009E061
:101070004FF41071904B196008E04FF400718F4BE2
:10108000196003E04FF400718D4B1960884B1A70A2
:1010900095F821300C2B02D102F0F3030DE0082B60
:1010A00004D122F00C0343F0040306E0272B06BF13
:1010B00022F00C0343F0080313467E49096811F43B
:1010C000805F25D09A4240F0F88121E04FF4A27170
:1010D0007C4A116008E04FF4A2717B4A116003E082
:1010E0004FF4A271794A116013F00C0202D0042A65
:1010F00005D009E04FF40071724A116008E04FF426
:101100000071714A116003E04FF400716F4A116081
:10111000674A137095F823200D2A02D103F0CF02FD
:101120000DE00E2A04D103F0CF0242F0100206E0D7
:101130001B2A06BF03F0CF0242F020021A465D4987
:10114000096811F4805F25D0934240F0BE8121E010
:101150004FF4A2715E4B196008E04FF4A2715D4B31
:10116000196003E04FF4A2715B4B196012F0300379
:1011700002D0102B05D009E04FF41071544B1960C8
:1011800008E04FF40071534B196003E04FF4007115
:10119000514B1960464B1A7000F0FAFF687FA97F27
:1011A00001F088F870B1687F01F09AF80446E8779A
:1011B000A87F01F095F8204385F82000287FFF28BC
:1011C00005D11CE00023EB7785F8203070BD0121AC
:1011D00002F028FC287F012102F000FC052002F02B
:1011E00093FC287F002102F0F9FB142002F08CFC14
:1011F000287F012102F0F2FB962002F085FC374B9C
:101200001B78002B28D072B6344B1B7813F0010FDB
:1012100007D0334B1968334A12680A4032490A60D2
:101220001A602E4B1B7813F0020F07D02F4B196852
:101230002C4A52680A402C494A601A60274B1B7896
:1012400013F0040F07D02A4B1968264A92680A4007
:1012500025498A601A6062B6264BDB68B3F1384FC5
:101260000AD0244B244A1A604FF03842DA604FF01B
:1012700078421A61214A1A6021481E4A0378591E91
:10128000CEB2002B53D0841C437895F8201043EA4B
:10129000014343F000435363D36A13F0F00F18BFC8
:1012A000916B03F47043B3F5405FF5D8A0193BE0B0
:1012B0005112FF1F3C80044018B0044008C0044095
:1012C000409004401CB004400CC0044044900440D2
:1012D00014B0044004C004403C9004401011FF1FAF
:1012E00080E100E0F810FF1F0411FF1F84E100E01F
:1012F00088E100E000C0024001401F0000001F80A4
:101300005488000014F8013BE97F43EA014343F0AD
:1013100000435363D36A13F0F00F18BF916B03F4CB
:101320007043B3F5405FF5D88442EBD1A6E76B4A32
:10133000116895F820301B0443F0006343F011035B
:101340005363D36A13F0805F04D113F0F00FF8D029
:10135000936BF6E7614B4FF08052DA621960DB6AFB
:1013600013F0F00F05D05D4B9A6BDA6A12F0F00FB4
:10137000FAD15B4B1B78C3B113F0010F03D0594B6B
:101380001A68594B1A60564B1B7813F0020F03D0A2
:10139000544B5A68554B1A60514B1B7813F0040F8D
:1013A00003D0504B9A68524B1A60782002F0ACFB85
:1013B0004B4B1B78002B28D072B6494B1B7813F08F
:1013C000010F07D04B4B19684B4A12680A40454938
:1013D0000A601A60424B1B7813F0020F07D0474B8C
:1013E0001968454A52680A403E494A601A603C4BB7
:1013F0001B7813F0040F07D0414B19683E4A9268DE
:101400000A4038498A601A6062B6344BDB68B3F12F
:10141000384F0AD0314B3B4A1A604FF03842DA60FD
:101420004FF078421A61384A1A602C4A116895F8D0
:1014300020301B0443F0006343F029035363D36A55
:1014400013F0805F04D113F0F00FF8D0936BF6E740
:10145000224B4FF08052DA621960DB6A13F0F00F12
:1014600005D01E4B9A6BDA6A12F0F00FFAD11C4BC2
:101470001B78002B31D013F0010F03D0194B1A68E1
:10148000194B1A60164B1B7813F0020F03D0154B43
:101490005A68164B1A60124B1B7813F0040F1CD0BD
:1014A000104B9A68124B1A6070BD11F003013FF4A3
:1014B000CBAD01293FF4CDADD0E512F00C023FF4E5
:1014C00005AE042A3FF407AE0AE613F030033FF4FA
:1014D0003FAE102B3FF441AE44E670BD00C0024069
:1014E0001011FF1F0411FF1F00E100E004E100E004
:1014F00008E100E080E100E0F810FF1F84E100E077
:1015000088E100E001401F0000001F802DE9F04F3E
:101510008FB005468B460392BDF860A0BDF864C04D
:101520009DF86860B0F906208A4240F3E282B0F983
:1015300008200398824240F3DC8206EB460201EB6E
:101540004202012A00F1D58200EBC602012A00F115
:10155000D082E24540F05681012E18D003EB830380
:10156000374606EB46010A9172000B92B0000990D3
:1015700006EB8601089108220592002004900121C3
:1015800006919F4A9A180D92B146564635E103EBF3
:101590008303039A96B206F1080292B203920127DE
:1015A000974A9A180492B946574680E00498815C9D
:1015B00019EA010F18BF43F001035B00DBB20132EF
:1015C000052AF3D15C08002B67D01F2C02D01E2CFB
:1015D00017D10AE000972846594632B20523FFF793
:1015E0009DF95AE01E2C10D101E04FF0000A0AEBE1
:1015F0000B010097284609B232B20423FFF78EF997
:101600004BE04FF0000A0FFA86F804F01C031C2B85
:1016100011D11FFA8AFA0AEB0B010097284609B28A
:1016200042460323FFF77AF92401E4B20AF1040ADF
:101630001FFA8AFA2FE004F01803182B11D11FFAB1
:101640008AFA0AEB0B010097284609B242460223A8
:10165000FFF764F9E400E4B20AF1030A1FFA8AFA18
:1016600019E014F0100F10D01FFA8AFA0AEB0B01E0
:10167000284609B242463B46FFF72AF8A400E4B2E6
:101680000AF1020A1FFA8AFA05E06400E4B20AF1DC
:10169000010A1FFA8AFA002CA4D14FEA49095FFA1D
:1016A00089F90136B6B203998E4200F022820022F7
:1016B00013467BE70D98815C0698084218BF43F0FB
:1016C00001035B00DBB20132052AF3D15C08002B79
:1016D00000F084801F2C02D01E2C23D110E004992E
:1016E000039B01FB0732CDF800900196284659462E
:1016F00012B2089BFFF764FA70E01E2C1FD101E0C4
:101700004FF0000A0AFB07B10498039B00FB073265
:10171000CDF800900196284609B212B2099BFFF756
:101720004FFA5BE00498039900FB07134FF0000A9F
:101730001BB207930FFA89F80B9A12B20C9204F0BD
:101740001C031C2B13D11FFA8AFA07FB0AB1CDF830
:1017500000800196284609B2079A0A9BFFF730FAE3
:101760002401E4B20AF1040A1FFA8AFA34E004F010
:101770001803182B13D11FFA8AFA0AFB07B1CDF808
:1017800000800196284609B2079A0C9BFFF718FAC9
:10179000E400E4B20AF1030A1FFA8AFA1CE014F02A
:1017A000100F13D01FFA8AFA0AFB07B1CDF8008098
:1017B0000196284609B2079A4346FFF701FAA400AA
:1017C000E4B20AF1020A1FFA8AFA05E06400E4B200
:1017D0000AF1010A1FFA8AFA002C8ED106984300FA
:1017E000DBB2069304994B1C9BB20493059A531EDB
:1017F0009BB20593002B00F07C810022134659E731
:10180000588300009B4A1278002A28D072B6994A61
:10181000127812F0010F07D0974A106897490968AB
:101820000140974801601160924A127812F0020F4D
:1018300007D0944A10689149496801409048416036
:1018400011608C4A127812F0040F07D08E4A10688B
:101850008A49896801408A488160116062B68B4A72
:10186000D268B2F1384F0AD0884A894911604FF0E6
:101870003841D1604FF078411161864911601FFAFB
:101880008BF406EB460704EB4707013FBFB2039812
:1018900081B201EBC600013880B295F82020120415
:1018A00042F0004242F02A02DFF8E081C8F834201A
:1018B0004246D2F82C8018F0F00F18BFD2F83890BA
:1018C00008F47048B8F5405FF3D8EA7F44EA024470
:1018D00044F010446D4A5463D46A14F0F00F18BFFA
:1018E000D2F8388004F47044B4F5405FF4D8EC7F4B
:1018F00047EA044444F01044644A5463D46A14F040
:10190000F00F18BF976B04F47044B4F5405FF5D83E
:1019100095F82020120442F0004242F02B025B4C6A
:1019200062632246D46A14F0F00F18BF976B04F478
:101930007044B4F5405FF5D8EA7F41EA024141F0D6
:101940001041524A5163D16A11F0F00F18BF946BE5
:1019500001F47041B1F5405FF5D8E97F40EA0141FB
:1019600041F01041494A5163D16A11F0F00F18BF9C
:10197000906B01F47041B1F5405FF5D895F82020E7
:10198000120442F0004242F02C0240494A630A46E7
:10199000D16A11F0F00F18BF906B01F47041B1F5EE
:1019A000405FF5D803EB8303082104914FF0010851
:1019B000394A1344354A9B4645E01BF8070008EABC
:1019C0000000002814BF504660464946EB7F40EABD
:1019D000034343F010435363D36A13F0F00F18BF6F
:1019E000946B03F47043B3F5405FF5D80131CBB28B
:1019F0009E42EBD80137052FDFD10020EB7F4CEA68
:101A0000034343F010435363D36A13F0F00F18BF3E
:101A1000916B03F47043B3F5405FF5D80130C3B266
:101A20009E42EBD8039B01330393DBB29E4201D964
:101A30000027C2E74FEA48085FFA88F80498431E77
:101A40009BB204932BB1002EF4D000210391894660
:101A5000EEE70E4B196895F82020120442F0006260
:101A60005A63DA6A12F0805F18D112F0F00FF8D0E2
:101A70009A6BF6E71011FF1F80E100E0F810FF1FDE
:101A80000411FF1F84E100E088E100E000C0024093
:101A900001401F0000001F8058830000164B4FF0CC
:101AA0008052DA621960DB6A13F0F00F05D0124B36
:101AB0009A6BDA6A12F0F00FFAD1104B1B78C3B1AF
:101AC00013F0010F03D00E4B1A680E4B1A600B4B2C
:101AD0001B7813F0020F03D0094B5A680A4B1A60A7
:101AE000064B1B7813F0040F03D0054B9A68074B85
:101AF0001A600FB0BDE8F08F00C002401011FF1F48
:101B00000411FF1F00E100E004E100E008E100E053
:101B10002DE9F00F84B003920193DDF830A000911D
:101B2000002900F0C281AC4B1B78002B28D072B684
:101B3000A94B1B7813F0010F07D0A84B1968A84ACE
:101B400012680A40A7490A601A60A34B1B7813F079
:101B5000020F07D0A44B1968A14A52680A40A14954
:101B60004A601A609C4B1B7813F0040F07D09F4B00
:101B700019689B4A92680A409A498A601A6062B65C
:101B80009B4BDB68B3F1384F0AD0994B994A1A60E6
:101B90004FF03842DA604FF078421A61964A1A6084
:101BA0000D9B534402930022914B019F07F10109C1
:101BB0004FF0805B90F82010090441F0004141F0A3
:101BC0002B015963D96A11F0F00F18BF9C6B01F417
:101BD0007041B1F5405FF5D81FFA8AF4C17F44EA3D
:101BE000014141F010415963D96A11F0F00F18BF5B
:101BF0009D6B01F47041B1F5405FF5D8C17F44EAB7
:101C0000014141F010415963D96A11F0F00F18BF3A
:101C10009C6B01F47041B1F5405FF5D8019C4D46D5
:101C2000039901E0013401350139012707FA01F672
:101C3000009F3E4201D001327FE0002A40F3318113
:101C400090F82060360446F0004646F02A065E63AF
:101C5000DE6A16F0F00F18BF9F6B06F47046B6F5FB
:101C6000405FF5D8A61AB6B290F81FC046EA0C46F7
:101C700046F010465E63DE6A16F0F00F18BF9F6BE9
:101C800006F47046B6F5405FF5D8A6B290F81FC0CE
:101C900046EA0C4646F010465E63DE6A16F0F00F28
:101CA00018BF9F6B06F47046B6F5405FF5D890F804
:101CB0002060360446F0004646F02C065E63DE6A7D
:101CC00016F0F00F18BF9F6B06F47046B6F5405F34
:101CD000F5D810E0C77FC68946EA074646F01046A9
:101CE0005E63DE6A16F0F00F18BF9F6B06F4704655
:101CF000B6F5405FF5D8013AECD1D3F800C090F8C2
:101D00001F80C68946EA084646F0C0565E63DE6A12
:101D100016F0805F04D116F0F00FF8D09E6BF6E756
:101D2000C3F82CB0C3F800C0DE6A16F0F00F04D080
:101D30009E6BDE6A16F0F00FFAD100297FF472AFC5
:101D40001746002A40F38A8090F82010090441F0D9
:101D5000004141F02A015963D96A11F0F00F18BF10
:101D60009C6B01F47041B1F5405FF5D8E91B89B275
:101D7000C47F41EA044141F010415963D96A11F02E
:101D8000F00F18BF9C6B01F47041B1F5405FF5D8BE
:101D9000ADB2C17F45EA014141F010415963D96AB2
:101DA00011F0F00F18BF9C6B01F47041B1F5405F6A
:101DB000F5D890F82010090441F0004141F02C01C1
:101DC0005963D96A11F0F00F18BF9C6B01F4704190
:101DD000B1F5405FF5D822E01011FF1F80E100E06F
:101DE000F810FF1F0411FF1F84E100E088E100E00C
:101DF00000C0024001401F0000001F80C47FC18955
:101E000041EA044141F010415963D96A11F0F00FE1
:101E100018BF9C6B01F47041B1F5405FF5D8013AF1
:101E2000ECD11C68C57FC18941EA054141F0C05130
:101E30005963D96A11F0805F04D111F0F00FF8D026
:101E4000996BF6E7C3F82CB01C60D96A11F0F00F5B
:101E500004D0996BD96A11F0F00FFAD10AF1010A96
:101E600002998A457FF4A6AE124B1B78EBB113F0B2
:101E7000010F03D0104B1A68104B1A600D4B1B78E2
:101E800013F0020F03D00C4B5A680D4B1A60094B2C
:101E90001B7813F0040F08D0074B9A68094B1A609F
:101EA00003E000297FF4BEAED8E704B0BDE8F00F30
:101EB000704700BF1011FF1F0411FF1F00E100E079
:101EC00004E100E008E100E02DE9F04F87B00746AB
:101ED000D0F818B09BF80E308B4209D89BF80F2031
:101EE000914205D8CB1A9BF8121001FB03F113E0C5
:101EF0009BF810209142C0F0FF809BF811008142B6
:101F000000F2FA809BF80F0001300144CB1A9A1AB4
:101F10009BF8121001FB02F1DBF800009BF8122085
:101F2000FEF788FBDBF8083003EB00084046002191
:101F30000322FEF77FFB002840F0DE809BF8139021
:101F4000404603214A46FEF775FB044609F10309A2
:101F50009BF81460404649463246FEF76BFB054647
:101F6000B1449BF81560404649463246FEF762FB95
:101F7000731E012202FA03F3184204D002FA06F398
:101F8000C31A049300E00490049A0392B1449BF8AE
:101F90001660404649463246FEF74CFB731E01224E
:101FA00002FA03F3184204D002FA06F3C31A0593A7
:101FB00000E00590B1449BF8176040464946324620
:101FC000FEF738FBB7F90A30002BBCBF00237B813A
:101FD0007B89039A02FA83FABAF1000F04DA049AB1
:101FE0009B1A7B814FF0000A0AEB0402B7F9063016
:101FF0009A4210DD3B7D002B7ED0039B002BAEBFB1
:102000000023049A53427B819BF81820BB89134418
:10201000BB814FF0000ABB89B7F908101AB2914290
:102020006ADD7A89104478819BF8192002FA83F3DB
:102030005B1B059AC2EB030B0495002D5CD0B144E9
:102040003B465F469B4609F101064FEAD90318F863
:1020500003206FEA090303F0070342FA03F313F0C6
:10206000010F20D10025C5EB0409B9F1200F28BFCD
:102070004FF02009404631464A46FEF7DBFA01465A
:1020800000970123019358464A4605EB0A03FFF7E0
:102090003FFD4E444D44AC42E5D80137049A013A25
:1020A0000492B14625E0404631460322FEF7C2FACB
:1020B0000230039009F104090025661B202E28BF79
:1020C0002026404649463246FEF7B4FA01460097BC
:1020D000039B01935846324605EB0A03FFF718FDB0
:1020E000B1443544AC42E8D8039A1744049B9B1A88
:1020F0000493049A002AA6D107B0BDE8F08F00BF70
:1021000010B584B004460B4682695AB10A2906D13B
:10211000127E8389134483810023438134E0FFF7D7
:10212000D3FE31E00A2907D1827C838903EBC20305
:1021300083810023438127E00D2925D0B0F90A10BF
:10214000B0F90C20C0890090208A0190A07C0290F8
:102150002046FFF7DBF9A37C03EB4301628902EB26
:10216000410292B26281217D71B112B2B4F90610BE
:10217000A3EB830001EB40018A4205DDA28902EB5B
:10218000C303A38100236381012004B010BD00BFFD
:10219000284B1A6842F480521A60274B274A1A606B
:1021A000274ADA6002F180421A61264A1A60264BF9
:1021B0001B7813F0030302D0012B05D009E04FF484
:1021C0001072224B1A6008E04FF40072204B1A6024
:1021D00003E04FF400721F4B1A601B4B1B7813F087
:1021E0000C0302D0042B05D009E04FF400721A4B07
:1021F0001A6008E04FF40072184B1A6003E04FF4C5
:102200000072174B1A60104B1B7813F0300302D08A
:10221000102B05D009E04FF41072124B1A60704772
:102220004FF40072104B1A6070474FF400720F4B5E
:102230001A6070473C80044000C0024001401F000B
:102240000110003800001F805112FF1F18B0044019
:1022500008C00440409004401CB004400CC004403E
:102260004490044014B0044004C004403C90044036
:10227000023818281AD8DFE800F00D1919191B19AF
:10228000191B0D1919191917191919190F131511E6
:1022900019190D0001207047042070470420704771
:1022A00008207047082070471020704700207047B2
:1022B0000220704738B50C46FFF7DAFF054650B1EB
:1022C0002046FFF7D5FF40B1054015F0FF0F14BFC2
:1022D0000020012038BD002038BD002038BD00BFDF
:1022E000023818284AD8DFE800F0134949491F4945
:1022F00049190D494949493D494949492531372B32
:10230000494943004FF400721D4B1A600120704789
:102310004FF400721B4B1A60012070474FF400729B
:10232000194B1A60022070474FF40072174B1A6065
:10233000022070474FF40072154B1A60042070475A
:102340004FF40072134B1A60042070474FF4007270
:10235000114B1A60082070474FF400720F4B1A603F
:10236000082070474FF400720D4B1A601020704720
:102370004FF400720B4B1A60012070470020704729
:1023800010B0044000C004400CB0044010C0044031
:1023900014C0044008B0044018C0044004B0044015
:1023A00000B004403890044070B582B0044699B93A
:1023B0000D4B1B680093009A4368D31A312B0BD83E
:1023C0000326094D304601F09FFB2B680093009ACD
:1023D0006368D31A312BF5D9034B1B680193019B1A
:1023E000636002B070BD00BF5C11FF1F08B5002123
:1023F000FFF7DAFF08BD00BFF8B541631B240C4DA1
:102400000C4E0D4F02E0C82001F07EFB2B7813F03C
:10241000FF0F09D0337813F0030F05D03A68074B4C
:102420001B68D31A182B01D8013CECD1F8BD00BFB2
:102430004012FF1F5012FF1F5C11FF1F1016FF1FDD
:1024400008B5002383634360084609B101F05CFBD3
:1024500008BD00BF38B504460D46406B03685B6895
:10246000094906229847606B29460A22002302F098
:1024700045FA606B03685B6804490822984732207C
:1024800001F042FB38BD00BFD0880000D8880000B2
:1024900070B504460D46037A23B3606B03689B68EE
:1024A00098470028F9D0002614E0606B0368DB68C9
:1024B0009847C3B2632B06D0762B02D0582B09D194
:1024C00007E0C0B270BD20462946FFF7C3FF632076
:1024D00070BD2672606B03689B6898470028E4DC37
:1024E000632070BD632070BD38B50446154621B128
:1024F000012303720021FFF7CBFF257238BD00BF17
:1025000001608280C380042101844184053A92B233
:102510008284053B9BB2C3848283C383012280F8FB
:10252000402080F841200023C36283864386C3860F
:102530000387C36345F65D41A0F846104FF6FF716F
:10254000A0F84210A0F84430036143618361C36482
:1025500080F85030436580F85830C36580F86030AB
:10256000014B1860104670475811FF1F2DE9F04FBE
:1025700083B081460D4616469A46BDF830708242B9
:1025800001DA91460646AA4502DA2B4655469A4696
:10259000154B1B6893F8582012F0020F07D00097D4
:1025A0005C6D4846294632465346A047C0B1554562
:1025B00016DCCB46DFF830800EE0D8F800301B6820
:1025C000204629463A469847013424B2A642F4DA16
:1025D00001352DB2AA4503DBB145F9DC5C46ECE7D9
:1025E00003B0BDE8F08F00BF5811FF1F2DE9F04F79
:1025F00087B004460D4617461E46BDF84080484B3E
:10260000196891F8503013F0020F08D0CDF800800F
:10261000D1F84CC029463346E04700287CD03A1B0D
:10262000731B9BB212B282EAE271A1EBE2710491D8
:102630001FFA81FB0FFA83F9B9F1000FB8BFC9F196
:1026400000091FFA89FA002A4FF6FF72C8BF01225B
:1026500002921BB2002B4FF6FF73C8BF01230393F6
:102660002F4B1B681B6820462946424698470FFAA5
:102670008BF20FFA8AF39A4202DA002B26DC4BE047
:102680000FFA8BF3002B47DD4BF34E06B6B2002753
:102690009A46DFF88CB04E44B3B29EB232B2924545
:1026A00005DC049A9E1AB6B2039B1D442DB2029912
:1026B0000C4424B2DBF800301B6820462946424611
:1026C000984701373BB29A45E5DC25E04AF34E06D0
:1026D000B6B200270FFA8AFADFF844B0CDF81490AA
:1026E000DDF810904E44B3B29EB232B2924505DC92
:1026F000059A9E1AB6B2029B1C4424B203990D445B
:102700002DB2DBF800301B68204629464246984728
:1027100001373BB29A45E5DC07B0BDE8F08F00BF5A
:102720005811FF1F2DE9F04182B080460F46164632
:102730001C46BDF8205000950B46FFF757FF00954B
:102740004046214632462346FFF750FF009540465B
:10275000394642462346FFF749FF00953046394641
:1027600032462346FFF742FF02B0BDE8F08100BFCA
:102770002DE9F04F89B0044606919B46BDF848A06C
:10278000A0F1B0034C2B37D8DFE803F033363636F0
:1027900036313636363636363636363636363636DE
:1027A0002F363636363636363636363636363636D0
:1027B00036362736363636362B36363636363636D3
:1027C0002D363636363636363636363636363636B2
:1027D0003636353636363636290099240CE08124D3
:1027E0000AE09A2408E0842406E08E2404E0E6242B
:1027F00002E0F82400E09424139D6B899C42C0F011
:102800009081A989A142C0F08C81E88885B20395A6
:10281000002D00F08681ED080595039D15F0070F4A
:1028200002D0059D01350595139D296911B1E51A61
:102830004D5D039595B20795AD49096891F86050D3
:1028400015F0020F00F0AC80069D6E1E039D2E4415
:10285000139D2B89013B079D2B44CD6D0698114696
:1028600032B21BB2A8470746139D2B79002B44D1E7
:10287000B5F908206B89E31A02FB03F3059D05FBFC
:1028800003F3002A40F34D8100250195059D6A1E42
:1028900092B201320292DDF84C9026E0434603F1F9
:1028A0000108D9F80020D55C7CB1A4F10806B6B2C5
:1028B00015F0010F14BF58465046B8476D08013C4B
:1028C000A4B2B44201D0002CF2D1009DA845E5D1BC
:1028D00000E00093019D6B1C9BB20193B9F9083095
:1028E000019D9D4280F21D81009B059D002DF0D031
:1028F000029D1D440095039CD1E7012B40F01181FE
:10290000139DB5F908206B89E31A02FB03F3B5F9AF
:10291000061001FB03F3002A40F303810025009514
:10292000039D6A1E92B201320292CDF804B0139E4A
:1029300029E023465C1C3268D35CC3F5807209FB36
:1029400002F00BFB030000125FFA8AF102FB01F2B6
:1029500003FB0823C3F3072300F47F401843B84761
:10296000AC42E6D100E01D46B6F9063003981B1ACA
:102970002B44009D6A1C92B20092B6F90820009D7B
:10298000954280F2CE80039D002DECD0029D1D4427
:10299000019800F47F4B0AF47F495FFA80F8C9E799
:1029A000139D2A79002A51D1B5F90820E31A02FBB8
:1029B00003F3059D05FB03F3002A40F3B2800025D5
:1029C0000495DFF82C91CDF800B0069DACB2059DC2
:1029D000002D2ED06A1E92B201321A440192039E3B
:1029E000079D04980544029503F1010B139D2A6885
:1029F000D55CCEB104F108081FFA88F8029807B236
:102A000015F0010FD9F800301B6820B2394614BF09
:102A1000009A524698476D080134A4B2013EB6B2FE
:102A2000444501D0002EEBD1019DAB4502D05B4661
:102A3000DAE70193049D6A1C92B201350495139D57
:102A4000B5F908309A426CDA019BBEE7012A68D1D9
:102A5000139DB5F90820E31A02FB03F300B200FB53
:102A600003F00190002A5CDD4FF00009069DADB235
:102A70000495039B2B449BB20093DFF87480CDF840
:102A80000890139E049C039D002D3AD0019BDDF815
:102A90001C90029DA9440FFA89F90BF47F475D1C35
:102AA0003268D35CC3F580720AF47F4E0EFB02FEDF
:102AB00007FB03EE4FEA2E2E5FFA8BF05FFA8AF1E6
:102AC00002FB01F103FB0012C2F307220EF47F4E5A
:102AD000D8F800100B6820B249464EEA0202984727
:102AE0000134A4B20098844204D02B46D7E700BF3B
:102AF0005811FF1F039D6B1E9BB20133019D1D44A6
:102B00000195B6F90630039D5B1B019D1D4401959F
:102B1000029D6A1C92B201350295B6F908309A42BC
:102B2000B0DB09B0BDE8F08F2DE9F04F8BB0044663
:102B300006894089A589B4F80EC0217D0391636898
:102B4000DF881A890492B4F816B0218B0891D4F862
:102B500000801B68002B00F0A480B8F1000F00F08B
:102B6000A0800FFA8CF203B2D21A04990BB29A42E7
:102B7000C0F2978098F8003053B1424601210A2BE9
:102B800004BF013189B212F8013F002BF7D100E0F8
:102B90000121039A12F0300F0FD00CF101031B1A20
:102BA000049A02FB1133C1F10101089A01FB0233BF
:102BB0009BB213F4004F01D073E00023039911F08E
:102BC000100F1CBF43F34E039BB203449BB206930A
:102BD0000597B6B207960135AD1B0995414600250C
:102BE00010E06268508983420CD396899E4209D3D3
:102BF000126912B11B1AD35C00E0059B5D4413FA05
:102C000085F5ADB211F8013B0BB10A2BE9D11FFAE2
:102C10008BF9C9EB0506099A961BB6B216F4004F5C
:102C20003FD1039B13F0010F06D113F0020F04D024
:102C300046F34E06B6B200E0002607990E44B6B23F
:102C400098F800500A2D22D008F101074DB3069ADA
:102C50000FFA82FA00E025B3B846238A628A00920E
:102C600062680192284631B25246FFF781FD6268E0
:102C700013691BB15289AD1A5B5D00E0059B4E44A0
:102C80001E44B6B298F8005001370A2DE3D108F17E
:102C90000108089B04990B44069A13449BB20693BF
:102CA0009CE70BB0BDE8F08F0178B9B140680378BC
:102CB00003F00303032B12D000F120030139C9B242
:102CC00003EB411106E018462033027802F00302BC
:102CD000032A04D08B42F6D10020704700207047B1
:102CE00030B40478B4B1436803F12000651EEDB23E
:102CF00000EB451518461C7804F00304022C05D19E
:102D00001C7E8C4202D15C7E944206D02033AB42C2
:102D1000F0D101E0002000E0002030BC704700BF8F
:102D20002DE9F0012F4B1B685E89B3F80CC01F7AA8
:102D30000378002B53D05D1EADB201356D01002329
:102D400036B20FFA8CFC4168CA185478C95C01F09D
:102D50004B010A293FD13FB3B6F1FF3F24D014F015
:102D6000400F04BF04F0670444F0050404F0DF01E1
:102D7000B2F90880B04514DCB2F90C80B04510DB24
:102D8000B2F90A80E0450CDCB2F90E80E04508DBC0
:102D900014F0400F12BF41F0200104F0DB0141F0BC
:102DA000220141F0400416E014F0400F13D014F05B
:102DB000200F07D014F0020F18BF44F0800444F035
:102DC000080401E044F0100414F0400F18BF44F070
:102DD000010404F0B90454702033AB42B3D1BDE810
:102DE000F00170475811FF1F2DE9F843074603789B
:102DF00043B303F1FF381FFA88F808F101084FEADE
:102E0000481800247B681E191D5D96F8019005F096
:102E10000303022B13D115F0200F03D0736838463B
:102E20003146984715F0080F09D015F0800F06D0ED
:102E300019F0410F03D07368384631469847203463
:102E40004445DFD1BDE8F8832DE9F04182B0054665
:102E5000154B00225A6002221A70037803B35E1EDB
:102E6000B6B20136760100240F4FA0466B681A19DE
:102E700001921B5D03F00303022B0ED1937E63B11D
:102E800001A97960117E7970527EBA70FB702B6B4C
:102E900038469847019B83F81A802034B442E5D124
:102EA00002B0BDE8F08100BF5011FF1F2DE9F04FC7
:102EB00087B005460F4616469B46109C93B2029378
:102EC00003F1FF380FFA88F82388009342460B4637
:102ED000FFF78CFBBBB2039303F101091FFA8BF3DD
:102EE000049303F1FF3A0FFA89F90FFA8AFA63881B
:102EF0000093284649462A465346FFF777FBA388A6
:102F000000932846594632465B46FFF76FFBE3883D
:102F100000933046394632465346FFF767FBADB261
:102F2000059505F1010B029B9D1E0FFA8BFB2DB23F
:102F300023890093584649462A464B46FFF756FBDD
:102F4000039B9E1C049B9F1E36B23FB26389009375
:102F5000584631465A463B46FFF748FBA389009343
:102F60005846514642465346FFF740FBE3890093DB
:102F70004046494642463B46FFF738FB059B03F176
:102F800002080FFA88F8029BDA1E238A0093404653
:102F9000314612B23346FFF729FB049BA3F1030924
:102FA000039BD91C0FFA89F9638A0093404609B242
:102FB00042464B46FFF71AFBA38A00934046394628
:102FC0002A463B46FFF712FBE38A00932846314628
:102FD0002A464B46FFF70AFB07B0BDE8F08F00BF5B
:102FE00000B583B002238DF803308DF800300B7EDE
:102FF0008DF801304B7E8DF802300191036B6846ED
:10300000984703B05DF804FB00B583B003238DF847
:10301000033002238DF800300B7E8DF801304B7E9B
:103020008DF802300191036B6846984703B05DF854
:1030300004FB00BFF0B40546002844D0002944D06A
:10304000002A44D00C4601F12007501EC0B207EB05
:103050004017032600202670E0612034BC42FAD1DC
:103060002A70696002222A7200226A814EF67D71FE
:10307000A981EA812A82184909688888013868820A
:10308000C8880138A8822B630323AB75AA6111B1EC
:103090002C31E96101E00023EB61022385F8203047
:1030A00085F82130112385F822304FF6FF73AB8469
:1030B0001F22EA842B8548F210436B850F2385F885
:1030C0002C30002004E0FF2002E0FF2000E0FF2081
:1030D00040B2F0BC704700BF5811FF1F50B1027AD8
:1030E00022F0400242F028020272044A1268106183
:1030F000002000E0FF2040B2704700BF5811FF1FC2
:1031000048B1027A12F0020F07D0816142F06002EA
:103110000272002002E0FF2000E0FF2040B2704772
:1031200010B40346C0B1027A12F0020F16D042F07A
:1031300060001872D961098993F82C4008B20130F7
:1031400084420DDC023183F82C1022F0400242F060
:1031500020021A72002004E0FF2002E0FF2000E0BD
:10316000002040B25DF8044B704700BF70B40346C6
:1031700018B3027A12F0020F21D0C5890D80048A9B
:103180004C80408A88809A8ACA809E7D16F0010F02
:1031900007D003350D8003344C8003388880033A10
:1031A000CA809A7D12F0020F0BD093F82C204B8826
:1031B000134401334B80002004E0FF2002E0FF2095
:1031C00000E0002040B270BC704700BFF0B58DB089
:1031D00006460C46CD694B7813F0010F27D013F04B
:1031E000800F05D001228A760A7842F020020A7008
:1031F00013F0020F0AD02B7843F001032B702378D1
:1032000043F0200323700423A3760CE02B7813F003
:10321000010F08D023F001032B70237843F0200323
:1032200023700523A376637823F00103637023786A
:1032300013F0200F00F0D68013F0080F00F0BE80CE
:1032400013F0400F04D12B7813F0020F00F08980A7
:1032500030460AA9FFF78AFFBDF82820238A1344C5
:103260002381BDF82A30618A19446181A18A0A4408
:1032700092B2A281E18A0B449BB2E381B6F91410A9
:103280001BB29942C0F2AE80B6F9123012B293422C
:10329000C0F2A88030462146FFF7A2FE6B7803F00B
:1032A0000103002B0CBF01270327AB88ADF81E30AC
:1032B0006B88ADF81C302B7813F0010F13D06B78AE
:1032C00013F0020F06D06B88ADF81E30AB88ADF856
:1032D0001C3008E013F0040F05D02B89ADF81E3028
:1032E000EB88ADF81C306B7813F0100F11D12089EA
:1032F000384461893944A289D21BE389DB1BBDF8BC
:103300001EE0CDF800E000B209B212B21BB2FFF726
:103310002DF923893B44ADF8143063893B44ADF863
:103320001630A389DB1BADF81830E389DF1BADF83D
:103330001A702B7C8DF82030EB6804930223ADF8D3
:103340002230ADF824306B690CA840F8243DFFF71B
:10335000EBFB237823F04003237030462146FFF730
:1033600053FE6B7813F0080F38D113F0010F13D010
:103370002B7803F001031C4A1C4D002B18BF154687
:10338000B4F90800B4F90A10B4F90C20B4F90E30FD
:103390000095FFF78BFD21E020896189A289E389EF
:1033A0002E7816F0010F14BF2D89ED88009500B21C
:1033B00009B212B21BB2FFF7B5F90FE06B7813F048
:1033C000100F0BD1B4F90800B4F90A10B4F90C20AD
:1033D000B4F90E30B5890095FFF7C8F8237823F0CB
:1033E000200323700DB0F0BD408900005889000013
:1033F000F0B58DB005460C46CE690B7813F0200F62
:1034000071D013F0080F5ED013F0400F67D00AA9F7
:10341000FFF7ACFEBDF82820238A13442381BDF8B2
:103420002A30618A19446181A18A0A4492B2A28138
:10343000E18A0B449BB2E381B5F914101BB29942A7
:1034400051DDB5F9123012B293424CDD28462146C7
:10345000FFF7C6FDB789ADF81E707389ADF81C3053
:10346000B4F90800B4F90A10B4F90C20B4F90E301C
:103470000097FFF77BF82389ADF814306389ADF826
:103480001630A389ADF81830E389ADF81A30B37B54
:103490008DF820307368049396F90F30ADF8223020
:1034A00096F91030ADF8243033680CA840F8243D6C
:1034B000FFF73AFB237823F0400323702846214688
:1034C000FFF7A2FD0BE0B1F90800B1F90A10B4F959
:1034D0000C20B4F90E30AD890095FFF747F823783A
:1034E00023F0200323700DB0F0BD00BF2DE9F0479D
:1034F0008AB00446002866D0037A13F0020F64D025
:10350000B0F80E80058A478A837D13F0010F07D03B
:1035100008F103081FFA88F80335ADB2033FBFB2C4
:103520002C4B1B685B69A34206D1DA8CADF81E20D8
:103530009B8CADF81C3005E0638DADF81E30238DFB
:10354000ADF81C30AEB20FFA88FA0FFA87F994F88A
:103550002C30013B3344BDF81E200092504629B266
:103560004A461BB2FFF702F8A3690393E369049389
:1035700008F10308ADF81480ADF81650ADF81870D6
:1035800094F82C30013B3344ADF81A3094F82230D3
:103590008DF8203094F92030ADF8223094F92130A4
:1035A000ADF8243003A8FFF7BFFA94F82C301E447E
:1035B00033B249F613520092504619464A46FFF775
:1035C00015F8002002E0FF2000E0FF2040B20AB022
:1035D000BDE8F0875811FF1F2DE9F04383B0044682
:1035E000B0F80E90068AB0F81280878A057A25F026
:1035F0002003037215F0080F53D0837D13F0010FE1
:1036000018D015F0400F15D12E4B00930FFA89F00A
:1036100031B20FFA88F23BB2FFF748FC09F1030917
:103620001FFA89F90336B6B2A8F103081FFA88F821
:10363000033FBFB2A37D13F0020F10D02046FFF767
:1036400055FF94F82C20237A13F0400F03D1013258
:103650001644B6B203E023F0400323722EE0A389A0
:1036600000930FFA89F031B20FFA88F23BB2FEF7FD
:103670007DFF237813B35D1EADB201356D010023CC
:103680006268D018D25C02F00301022905D112F061
:10369000080F1CBF42F0600202702033AB42EFD132
:1036A0000CE00FFA89F1084B1B68B3F84630009321
:1036B00008460FFA88F23BB2FEF758FF03B0BDE8A8
:1036C000F08300BF708900005811FF1F10B5294B0F
:1036D0001B6893F8482012F0010F1CBF22F0010272
:1036E00083F848201A695869824229D042B3986108
:1036F0005A61C8B1837D13F0020F15D0037A13F01D
:10370000080F11D0B0F90E10B2F90E30994209D15C
:1037100001691369994205D1B0F91410B2F9143056
:10372000994201D0FFF7E2FE124B1B685A69117AE9
:1037300021F0400111725B691A7A42F028021A7274
:103740000C4B1B685C699CB1237A13F0200F02D0EC
:103750002046FFF741FF237A13F0080F08D02046D8
:10376000FFF7DEFA2046FFF73FFB2046FFF76CFB32
:1037700010BD00BF5811FF1F2DE9F04106460D4650
:1037800017469846FFF790FA0446002838D00023E1
:103790002B70B389AB8073896B80B3892B8173895C
:1037A000EB8001236B7012232B74174B196811B136
:1037B0002C31E96001E00023EB60144B6B61144B8A
:1037C00063600020607001232376A076A4F8108047
:1037D000BDF918306382BDF91C30A382BDF92030D9
:1037E000E3824FF6FF7323816381A381E3816776D0
:1037F0002378E56123F0010363F03503237000E0D3
:10380000FF2040B2BDE8F0815811FF1F88B10000D1
:10381000CD31000010B50B46144601211A46FFF7C2
:103820005FFA38B1C2699480027842F06002027097
:10383000002000E0FF2040B210BD00BF10B50B46D5
:10384000144601211A46FFF74BFA38B1C269546198
:10385000027842F060020270002000E0FF2040B2D7
:1038600010BD00BF10B50B46144601211A46FFF7E4
:1038700037FA38B1C269D460027842F0600202704F
:10388000002000E0FF2040B210BD00BF2DE9F04154
:1038900006460D4617469846FFF706FA04460028E6
:1038A00034D000232B601B4B196811B12C31696097
:1038B00001E000236B600021297273896B81B38959
:1038C000AB811223AB73E9732974134B636061708E
:1038D00002232376A176A4F81080BDF91830638204
:1038E000BDF91C30A382BDF92030E3824FF6FF738F
:1038F00023816381A381E38167762378E56123F0E7
:10390000010343F04A032370084600E0FF2040B261
:10391000BDE8F0815811FF1FF133000010B50B46D0
:10392000144602211A46FFF7DBF938B1C269548107
:10393000027842F060020270002000E0FF2040B2F6
:1039400010BD00BF10B50B46144602211A46FFF702
:10395000C7F938B1C2691460027842F0600202709F
:10396000002000E0FF2040B210BD00BF10B50B46A4
:10397000144602211A46FFF7B3F938B1C269546000
:10398000027842F060020270002000E0FF2040B2A6
:1039900010BD00BF10B50B46144602211A46FFF7B2
:1039A0009FF938B1C2699473027842F060020270E4
:1039B000002000E0FF2040B210BD00BF044B0022F9
:1039C0001A6004490A60044A106010221A607047A5
:1039D00014D0034004D0034000D003403F281ED839
:1039E0000F4B53F8303093F8802212F0FF0F08D0BD
:1039F00019B1012283F880207047012283F8002149
:103A00007047074B03EBC000436821B11A6842F0CE
:103A100003021A6070471A6822F002021A607047A7
:103A20008CB100003F284AD8254B03EBC0035B68EC
:103A3000012911D004291DD0214A52F8302000203C
:103A400082F8800200292FD0022931D003291FD00B
:103A500040F203121A607047194A52F830200121CF
:103A600082F880124FF4A2721A601A6822F02002C3
:103A70001A607047124A52F83020012182F88012F1
:103A80004FF4A2721A601A6842F020021A6070475E
:103A90004FF480721A601A6842F002021A601A68C3
:103AA00022F001021A6070474FF480721A6070476A
:103AB0004FF480721A601A6842F003021A6070476D
:103AC0008CB1000072B60C4B1B680C4A12680C4992
:103AD000096862B611F0806F02D0322B88BF0132C4
:103AE000C3F5EA33BF330749A1FB03039B094FF436
:103AF0007A7000FB0230704718E000E05C11FF1F95
:103B000004ED00E08988888838B50546FFF7DAFFBC
:103B1000044625B938BD013D0AD004F57A74FFF793
:103B2000D1FF001BB0F57A7FF5D200F053FFF6E726
:103B300038BD00BF70B5344B4FF000621A604FF0D3
:103B400080521A604FF000521A604FF080421A60A3
:103B50004FF000421A6000202C4B18604EF6FF71A7
:103B60000433196028232A4A13600832136008328C
:103B70001360083213600832136008321360083291
:103B8000136008321360234D2B60234C236002F531
:103B9000002202F6D87213600832136008321360F4
:103BA00008321360083213600832136009221B4E7A
:103BB000326006F5805604363060043631600436D3
:103BC000336008363360143E326006F5FE26043654
:103BD0003060043631600436336008363360143E9A
:103BE000326006F58056043630600D4801602B6067
:103BF00023600C4B1A6000F01DFF4FF4C870FFF7F4
:103C000083FF00F075FC70BD04E100E00480034018
:103C10000C8003400C900B4014900B40008003403C
:103C200008900B4000900B4030B40E4B1B7843F0D3
:103C300002020D4C04EBC20460600C4800780028BE
:103C40000CBF8824C82444EA0141074D45F83210CE
:103C500080F00100054A107083F00103014A1370DF
:103C600030BC7047C811FF1F0000FF1F4112FF1F2B
:103C700010B4431E032B11D872B60A4A52F823001F
:103C800050B14268074941F82320074A32F81340EF
:103C90000188611A22F8131062B600E000205DF876
:103CA000044B7047B811FF1F0016FF1F013803288F
:103CB0000DD872B6074B53F820302BB100200130DD
:103CC0005B68002BFBD100E0002062B6704700204B
:103CD000704700BF0C12FF1F38B572B601231B4995
:103CE0001B4C5A1812F8012C12F0080F24D09A001D
:103CF00054F832506DB9164B03EBC20108304860DE
:103D0000144943F83210144B1A78013A1A7062B60B
:103D100038BD42F0010254F832506DB90C4B03EB40
:103D2000C201083048600D4943F832100A4B1A7836
:103D3000013A1A7062B638BD0133052BD1D162B693
:103D40000022054B1A7000F03DFC38BDB8B30000EE
:103D50000000FF1F880040003612FF1FC80040000F
:103D600010B4431E032B37D8400140F010001C4A0A
:103D7000104472B61B4AD25C032A09D8DFE802F06D
:103D800019021B050830022216E00830042213E055
:103D9000154A52F823201AB9134A42F8231003E0B7
:103DA000124A52F823205160104A42F8231062B69A
:103DB00012E0032200E005220A4CE25401F108035C
:103DC000436000F00803002B0CBF8823C8230A8837
:103DD00043EA0243036062B65DF8044B704700BFDC
:103DE0000000FF1F7411FF1F0C12FF1F1C12FF1F8A
:103DF0002DE9F84FA34CDFF8E092DFF8E0A2DFF8FE
:103E0000E0B22578EDB215F0040F1DD09E4B1B7863
:103E100013F0FF0F16D09D4B1B7803F0FF022BB160
:103E2000531EDBB2994A137003B900BE984B1B783E
:103E300003F0FF0233B1531EDBB2954A13700BB986
:103E400000F01CFD0423237015F0080F00F0E4823D
:103E500099F80030DBB21D0940F021828D4D9E089B
:103E600005EBC6035A6855F83630C3F38303013BAC
:103E70000C2B00F21082DFE813F0CB01CB010E0215
:103E80000E020E020E020E020E02E8010E020E02D9
:103E90000E020D00804913680B6052684A607F4A29
:103EA00045F8362000227E490A607A490A618A6113
:103EB00001217C4A11709BB240F28162934218D872
:103EC000B3F5D06F2ED2B3F5817F00F01E8106D8F6
:103ED000802B00F0C980822B00F0CC8066E140F29C
:103EE0000232934200F02681B3F5A06F00F06281A8
:103EF0005CE142F22102934200F0868107D8B3F5DB
:103F0000086F00F0AB80B3F5106F11D04EE142F2B4
:103F10002122934200F0418142F22132934200F08B
:103F2000498143E1604B5D68002D40F0188130E12C
:103F3000594B9A78544B1A70564D05F180062B6AEE
:103F400013F0800F03D0686A083800F03BFB083597
:103F5000B542F4D1DFF88C8100263746534AB05879
:103F600028B1456800F02EFB0DB12846F9E7002383
:103F70004E4973504E4AB3504E4BF05828B14568E5
:103F800000F020FB0DB12846F9E7002349497350A2
:103F9000494AB35028F8023F484BFB5C023B032BD5
:103FA0000AD8DFE803F0020602060022434BDA5586
:103FB00002E00122414BDA5501370436102ECDD1F3
:103FC00000223F4B1A7001253E4EDFF81C81314F15
:103FD00005EB080313F8013C06F8043B13F0080F47
:103FE0002DD000F0CFFA48B1A90007EB451200F13F
:103FF00008035360344A47F8312007E0AB00002241
:1040000047F833202E4B1A7801321A7000F0BAFAB2
:1040100058B1AB0043F0010307EBC30100F1080204
:104020004A601E4A47F8332009E0AB0043F0010321
:10403000002247F83320224B1A7801321A70AA0066
:1040400042F00201002347F8313042F0030247F802
:10405000323001351D4B9E42BAD11EE20A4B1B780D
:104060001B4D2B700127AAE0194D00232B706B709C
:104070000227A4E0084B9B88042B37D90F22154B4D
:104080001A70C1E0802007404012FF1FC911FF1FB6
:104090004212FF1F0000FF1F2C12FF1FC80040002C
:1040A0006011FF1F4112FF1FBCB30000B811FF1FBA
:1040B0006411FF1F0C12FF1F1C12FF1F7411FF1F42
:1040C0003612FF1FC420074088004000D42007405C
:1040D0003812FF1FC020074090200740942007405F
:1040E00098200740FE15FF1FB8B30000A04A00212A
:1040F000117051709F4A12F8233013F0020F5CD0F8
:104100009B4D01232B70022759E09B4B9B8803F0AA
:104110007F03042B02DC984A52881AB10F22954B78
:104120001A7071E0934A12F8231021F0020102F88C
:104130002310B2E1904B9B8803F07F03042B02DC39
:104140008D4A52881AB10F228A4B1A705CE0894A54
:1041500012F8231041F0020102F823109DE1864B72
:104160005E889F88854BA3F10C02114633F80C0C36
:10417000B04209D133F80A0CB84205D1360A032EF1
:104180000CBF2F7817891AE00D690C330C32002D03
:10419000EBD10F22774B1A7036E0794B1A68794BC6
:1041A0001A60754B9A78784B1A7076E10F22714B32
:1041B0001A7029E000273D4601E002276C4D6E4B46
:1041C000DB889F4228BF1F46402F34BF3E46402613
:1041D00028463146FFF728FD3544BF1B03D13F2E4B
:1041E00000F2608110E0402F34BF3E464026284652
:1041F0003146FFF719FD3544BF1B01D13F2E03D9CE
:10420000624B1D60624B1F8001238AF8003042E040
:10421000594B198842F22103994212D15D4BD81DA6
:1042200012F8011B03F8011F8342F9D15A4B1B6896
:10423000862B02D10F22594B1A7000200146FFF73E
:10424000F3FC574B45F8363025E0504B1E68BEB1A5
:104250004F4FB7F80080B8F1400F34BF45464025B6
:1042600030462946FFF7E0FCC5EB08039BB23B80D4
:104270000BB9402D01D1354400E00025434B1D60B2
:104280003D4B1B88B3F5A06F05D13B4B00225A7004
:104290009B788BF8003001238AF80030B9E0414E5A
:1042A0009F0806EBC708D8F80420A2F10800013DDA
:1042B000EDB213F0080F47D000F084F93A4B53F8F1
:1042C00025304BB35A68384941F8252003F10802DC
:1042D000C8F80420354A525D032A12D8DFE802F0FC
:1042E00002060A0E0321314A51550AE002212F4AE3
:1042F000515506E005212D4A515502E004212B4A73
:10430000515518F0080F0CBF8822C8221B8842EABA
:10431000034346F837307CE0244B5B5D032B0BD81E
:10432000DFE803F0777702060022204B5A5570E051
:1043300001221E4B5A556CE018F0080F0CBF0222E8
:1043400003221A4B5A5564E056F837301B0C22F8FA
:10435000083C002B55D0002322F8063C42F8043CD0
:10436000134B53F825302BBB114B43F8250025E0A8
:104370003812FF1FC02007402C12FF1FC8B30000D7
:104380005C11FF1F1016FF1F5012FF1F6011FF1F4F
:104390003412FF1F0716FF1F0816FF1FC911FF1F4A
:1043A000C80040000000FF1F0C12FF1F7411FF1F08
:1043B000B811FF1F3F4B53F8253058603D4B43F871
:1043C00025003D4B33F8151032F8082C0A4423F829
:1043D000152000F0D7F860B100F10803C8F80430E8
:1043E00018F0080F354B364A08BF134646F83730E9
:1043F0000FE0002346F83730324B1A7801321A703A
:1044000007E018F0080F2D4B2D4A08BF134646F859
:10441000373008232370F4E415F0010F22D02A4925
:1044200002230B700022294B1A70294B2448186074
:10443000284C5C6098602848D8601A619A610D2009
:10444000264B1870FF232648037008380370183075
:104450000270244A13709F22234B1A7001230B70A1
:10446000BDE8F88F15F0800F05D00D221B4B1A7098
:104470008022403B1A7015F0020F06D0184B1A78B4
:10448000D2B21A700222083B1A7015F0100F0ED02B
:104490001022164B1A70BDE8F88F00200146FFF776
:1044A000C3FBB1E628460021FFF7BEFBACE6BDE842
:1044B000F88F00BF6411FF1F0016FF1FC8004000E7
:1044C000880040003612FF1F94200740C811FF1FCC
:1044D0000000FF1F7811FF1FCC11FF1FC0200740F5
:1044E000882007408C200740842007408020074018
:1044F00008B502F04DFE00231C491A465A50C81850
:1045000042600833882BF9D1194B1A6842F4802293
:104510001A60184B1A6842F040721A60134BC3F3CA
:104520000721154A1170C3F30741143211701B0E95
:1045300004321370FF23343A137008321370783A40
:10454000137001238432137000216C3211707C3A95
:1045500013707022094B1A704FF40012A3F231331A
:104560001A601022064B1A7008BD00BF0000FF1F22
:104570003480044000D800409C20074035E400E02F
:104580000821074072B60D4B1A68B2FA82F30B2B62
:1045900002D962B6002070474FF00041D94022EAAC
:1045A000010206490A6062B6054903EBC303DB005A
:1045B000C8180022CA504260704700BF6007FF1F42
:1045C0000004FF1F08B50F4BC31A0F4AA2FB0313C9
:1045D0001B090B2B14D80D4A12783AB10C4A1278E9
:1045E00012F0FF0F02D0FFF777FB08BD72B6094A41
:1045F0004FF0004121FA03F311681943116062B6CC
:1046000008BD00BF0004FF1F398EE3383612FF1FBC
:104610004012FF1F6007FF1F10B5134B1B6853B9F3
:10462000124B1B7813F0FF0F18D00320FFF720FB6D
:104630000D4B1860A8B10C4B186843885A1C0344F2
:104640001C7A03889A4206D3FFF7BCFF0022064B70
:104650001A60204610BD4280204610BD4FF0FF304A
:1046600010BD4FF0FF3010BD4C12FF1F4012FF1F56
:1046700008B50D4B1B6883B90C4B1B7813F0FF0F6B
:1046800008D00320FFF7F4FA074B186028B94FF061
:10469000FF3008BD4FF0FF3008BD034B1B685A8840
:1046A0001344187A08BD00BF4C12FF1F4012FF1FB1
:1046B000044B9888044B1B681BB11A885B88D31A7B
:1046C000184470470016FF1F4C12FF1F10B50B4B0C
:1046D0001B7813F0FF0F0FD0094B186820B1FFF7BC
:1046E00071FF0022064B1A6003242046FFF7C0FA30
:1046F00010B1FFF767FFF8E710BD00BF4012FF1FC2
:104700004C12FF1F2DE9F04704460122374B1A7067
:104710000E46002964D0DFF8E080DFF8E0909A468A
:10472000334FD8F8003083BB99F8003013F0FF0FF7
:1047300006D100222D4B1A704FF0FF30BDE8F087F4
:104740004DF2E9050420FFF7B1FA07280AD8012342
:104750008AF80030FFF716FFC8F80000A8B9002358
:104760008AF80030013D01D03B7833B10122204B63
:104770001A704FF0FF30BDE8F08700F02BF999F880
:10478000003013F0FF0FDDD1D3E700233B70D8F8E2
:1047900000104A88C2F14005AE4238BF354602F1EA
:1047A00008030B442A444A80761B3DB1254414F883
:1047B000012B03F8012BAC42F9D100E025464B88D0
:1047C0003F2B07D940230B800420FFF7C9FA0023B1
:1047D000C8F800300522074B1A700EB12C46A0E72E
:1047E0000020024B1870BDE8F08700BF4312FF1F86
:1047F0004812FF1F4212FF1F4412FF1F4012FF1FEB
:1048000000B583B002AB03F8010D18460121FFF794
:1048100079FF03B05DF804FB10B5144B1B7813F05F
:10482000FF0F21D00122124B1A70124B196851B19F
:104830000024114B1C704B880B800420FFF790FA6A
:104840000C4B1C600DE0FFF79DFE014630B10022CD
:10485000094B1A700420FFF783FA02E00122064B8D
:104860001A700022024B1A7010BD00BF4012FF1FC9
:104870004312FF1F4412FF1F4212FF1F08B50E4BC9
:104880001B7813F0FF0F16D10C4B196841B14B8800
:104890000B800420FFF764FA0022084B1A6008BD61
:1048A000FFF770FE014618B10420FFF759FA08BD62
:1048B0000122034B1A7008BD4312FF1F4412FF1F51
:1048C0004212FF1F08B5FBF7DBFDFBF79BFE00F074
:1048D00081F8FAE7F8B506460F46144652B10025AE
:1048E00033681B68304617F8011B98470544013CA4
:1048F000F6D100E000252846F8BD00BFF0B58BB02A
:10490000164622B903681B68C9B298472FE0012AEE
:1049100008BF0A2621B930228DF82520212417E06E
:1049200021243746B1FBF6F506FB1515EDB22246FC
:10493000092D94BF30353735EDB20DF1280E724494
:1049400002F8245CB1FBF7F111B1013CE4B2E9E7F4
:1049500033B1013CE4B20AAB23442D2203F8242CEA
:1049600003685B6801A92144C4F1220298470BB097
:10497000F0BD00BF08B5FFF79BFE08BD08B5FFF707
:104980004BFE08BD08B5FFF773FE08BD08B5FFF77D
:1049900043FF08BD08B5FFF799FE08BD08B50846F6
:1049A000FFF72EFF08BD00BF08B508461146FFF708
:1049B000A9FE08BD704700BF044B00221A714FF4D6
:1049C0007A7199601A73024A1A6070475412FF1F75
:1049D00098B3000008B5164B1B7843BB0122144B5B
:1049E0001A70FFF765FE08B1FFF7E4FF00F0D6FB91
:1049F00008B102F0A3FC00F0A3FF08B102F040FDF3
:104A000001F076FA08B102F0DDFD01F087FD08B192
:104A100002F07AFE02F02AF808B102F017FF02F065
:104A2000CDFA08B102F0B4FF0022014B1A7008BDA4
:104A30006412FF1F60223A4B1A70E12201331A7090
:104A4000384B1B78082B10D1212203F1804303F54A
:104A50006C331A60132334490B6001F5FF2101F216
:104A6000FC710A60314A13601FE00A2B0DD1392214
:104A70002F4B1A6013232C490B6001F5FF2101F223
:104A8000FC710A60294A13600FE00C2B0CBF352221
:104A90005D22274B1A60122323490B6001F5FF2189
:104AA00001F2FC710A60214A1360224B1B7833B17A
:104AB0000123214A136002F50022136005E0002360
:104AC0001D4A136002F5002213601C4B1B78012B5A
:104AD00006D880231A4A136002F5002213601AE0F8
:104AE000042B06D88423164A136002F500221360B3
:104AF00011E0082B06D88523114A136002F5002225
:104B0000136008E0102B94BF862387230C4A1360A0
:104B100002F50022136001220A4B1A70704700BF91
:104B2000004007406407FF1F0CB003400CB00B406F
:104B300008B003406612FF1F20B003406507FF1F47
:104B400024B003406512FF1F024B1A6801321A603D
:104B5000704700BF5C11FF1F08B50D4C236813F4AC
:104B6000802F01D0FFF744F9236813F4806F01D040
:104B700000F09EFB236813F4006F01D000F06AFF81
:104B8000236813F4805FE9D001F028FAE6E700BF5C
:104B90003480044008B5FFF7DFFF00BF1022014B4F
:104BA0001A80704700200540704700BF024A136812
:104BB00018441060184670476807FF1FEFF313830F
:104BC000ABB9EFF31083ABB9EFF3058323B10F2B30
:104BD00005D9094A985C03E04FF4807000E000209A
:104BE000EFF311833BB1834238BF184670474FF053
:104BF000FF30704700207047F0E300E030B400233E
:104C0000B0FBF2F402FB14041D46092C94BF3034AF
:104C10003734E4B2CC54B0FBF2F008B10133EFE723
:104C20000D4400226A70934207DD885CCC5C8C5492
:104C3000C8540132013B9A42F7DB084630BC70474A
:104C40002B4B1A6842F480621A600023294A1370C1
:104C5000294A1370294A1370294A1370294A13707C
:104C6000294B1B78152B07D01B2B0AD06BB940F2B0
:104C70001332264B1A6008E040F21332244B1A60BC
:104C800003E040F21332234B1A60234B1B78052BB1
:104C900008D01A2B0BD0012B0DD14FF451721F4BA2
:104CA0001A6008E04FF451721D4B1A6003E04FF494
:104CB00051721C4B1A60C0F344321B4B1A70C0F384
:104CC00047125A7000F01F00987204229A70022155
:104CD000D9745A7588221A743C22DA704022134B18
:104CE0001A704FF00042A3F21F331A60704700BFE2
:104CF00034800440F412FF1F6D12FF1FFC12FF1FCF
:104D0000F512FF1F6C12FF1FB012FF1F40A00440DE
:104D100018C004403C9004406C07FF1F44A00440AE
:104D20001CC004403890044000A006401FE400E08E
:104D30001B4B9B7803F0EC0300F00302134310F0CD
:104D4000040F18BF43F01003154A937000F00F03CF
:104D5000042B04D11346927942F040029A71104B11
:104D60005A7902F0EF0210F0100F18BF42F0100253
:104D70000B4B5A719B7903F0EF0310F0200F18BF13
:104D800043F01003064A937110F4807F07D0134656
:104D90005278D2B2197841F0200119705A707047D8
:104DA00000A0064010B5144B1B6813F4806F21D08F
:104DB000124B1B7813F0FF0F06D0104CFFF70AFEC2
:104DC000237813F0FF0FF9D14FF000420C4B1A601B
:104DD00000230C4AD37040F203120B490A600431DD
:104DE0000A600A4A13700A4A13700A4B1B680BB117
:104DF00001221A7010BD00BF348004406C12FF1FE6
:104E000080E100E000A0064040A00440F412FF1F33
:104E10006D12FF1F6812FF1F10B50446094A137870
:104E200013F0FF0FFBD120460121FEF7FBFD2046CA
:104E30000021FEF7D3FD044B53F83420034B1A60D6
:104E400010BD00BF6C12FF1F8CB10000F812FF1FD5
:104E500010B40C4609B140F080001D4B1B789842FD
:104E600033D01C4A126812F4806F2CD003F07F03F9
:104E7000052B07D01A2B09D0012B0AD10022164B83
:104E80001A6006E00022154B1A6002E00022144B63
:104E90001A60002C0CBF4422602200F07F03052B17
:104EA00008D01A2B0BD0012B0DD142F440720A4BC3
:104EB0001A6008E042F44072084B1A6003E042F4C2
:104EC0004072074B1A60024B18705DF8044B704734
:104ED0006C07FF1F3480044044A004401CC0044001
:104EE00038900440174B1B78984229D0164A126814
:104EF00012F4806F22D0152B06D01B2B08D053B98B
:104F00000022124B1A6006E00022114B1A6002E0E8
:104F10000022104B1A60152807D01B280AD068B948
:104F200040F21332094B1A6008E040F21332084B8A
:104F30001A6003E040F21332064B1A60014B1870FE
:104F4000704700BFB012FF1F3480044040A00440EF
:104F500018C004403C90044010B50D4B1B6813F47E
:104F6000806F12D03F280CD80A4C0B4B53F83030CE
:104F700023600121FEF756FD236800221A700120EC
:104F800010BD0020034B186010BD002010BD00BFF5
:104F9000348004406812FF1F8CB10000114B1B6865
:104FA00013F4806F1BD0122804D140F202320E4B52
:104FB0001A600DE0142804D140F202320B4B1A6043
:104FC00006E00B4B5A7B02F0FE025A73002070473A
:104FD000074B5A7B42F001025A73012070470020B0
:104FE000704700BF348004400CA0044014C004404B
:104FF00000A006402DE9F04107461F4B1B6813F443
:10500000806F37D01D4B1B680BB101221A701C4BEF
:105010001C780134402C28BF00241A4D1A4EDFF8AA
:105020006C8017E0FFF7CAFD40280FDC337913F0DE
:10503000800F0FD02B780133402B28BF002318F8A6
:105040000320D2B2F271DBB22B7003E0FF2801DD46
:10505000FFF7C0FC2B78DBB29C42E3D0FFB20B4BD6
:105060001F5501220A4B1A70E4B2054B1C70BC227A
:10507000054BDA70BDE8F08134800440F812FF1F60
:10508000FC12FF1FF512FF1F00A006407012FF1F49
:105090006C12FF1F2DE9F84F0746284B1B6813F4CD
:1050A000806F49D0264B1B680BB101221A7007EBA9
:1050B000010B5F453DD2DFF89890224EDFF88C80DF
:1050C000DFF890A099F800400134402C28BF00245C
:1050D0003578EDB2A54220D1BC2388F80330FFF724
:1050E0006DFD402811DC98F8043013F0800F10D0CB
:1050F00033780133402B28BF00231AF80320D2B2A3
:1051000088F80720DBB2337003E0FF2801DDFFF7EA
:1051100061FC3378DBB29D42E1D017F8013B0AF81D
:1051200004300122084B1A70E4B289F800405F4550
:10513000C8D1BC22054BDA70BDE8F88F348004403A
:10514000F812FF1FF512FF1F6C12FF1F00A0064090
:10515000FC12FF1F7012FF1F10B5064B1B7813F0D7
:10516000FF0F06D0034CFFF735FC237813F0FF0F39
:10517000F9D110BD6C12FF1F064B1B78DBB2064A3B
:105180001278D2B293422CBF3F3202F1FF32D01AD2
:10519000704700BFFC12FF1FF512FF1F054B187868
:1051A000C0B2054B1B78DBB2984238BF4030C01A02
:1051B000704700BFF412FF1F6D12FF1F10B4184B91
:1051C0001A78D2B2174B1B78DBB29A4218D001334F
:1051D0003F2B18D81449C85CC0B2DCB211490C701E
:1051E00012490968C9B19A4203D300E00023D31AD7
:1051F00001E04032D31A1A2B0FDC00230B700CE0B5
:105200004FF0FF3009E0084B1878C0B20021054B81
:105210001970064B19680029E8D15DF8044B7047F6
:10522000F412FF1F6D12FF1FB412FF1F6812FF1F41
:10523000094B1A78D2B2094B1B78DBB29A4207D0DD
:105240000133402B28BF0023054AD05CC0B2704711
:105250004FF0FF30704700BFF412FF1F6D12FF1FA9
:10526000B412FF1F0D4B1B6813F4806F14D00C4B4E
:10527000DA7802F0CB02DA7040225A74DA7842F01F
:105280003402DA70074B1A78D2B2074B1A70074B08
:105290001B680BB100221A70704700BF34800440B5
:1052A00000A006406D12FF1FF412FF1F6812FF1FBF
:1052B00070B43D4B1B7913F0300F33D072B63A4BBC
:1052C0009B7D03F0FF022BB9374BDA7940225A74E9
:1052D00062B627E062B6354B1978C9B2344B1C78F8
:1052E000E4B2314D334EEB79D8B24B1C402B28BF82
:1052F0000023A3421CBFF0541946531E13F0FF02B3
:10530000F1D1CAB2294B1A702B4B1B6853B1A14281
:105310002EBFC4EB0101C4F1400409192729C4BF01
:1053200001221A70204BDA78D2B212F0800F27D007
:105330001B7913F0800F23D0204B1C78E4B2204B54
:105340001B78DBB29C4210D017491E4D01E0A342EE
:105350000BD00133402B28BF00230879E85CC0B292
:10536000C871087DC0B20728F1D9DBB214490B70AF
:105370000D4B1B7913F0800F02D07C210A4BD970A2
:1053800012F0400F0ED0084B1B7913F0400F09D0DC
:1053900000220D4B1A700D4B1B6803B11A703C2292
:1053A000014BDA7070BC704700A00640F412FF1F7A
:1053B0006D12FF1FB412FF1F6812FF1FFC12FF1FA8
:1053C000F512FF1F7012FF1F6C12FF1FF812FF1F54
:1053D0002A4B1A6842F400621A600023284A1370AC
:1053E000284A1370284A1370284A1370284A1370E9
:1053F000284B1B781A2B08D03B2B0BD0092B0DD137
:1054000040F21332244B1A6008E040F21332234B6F
:105410001A6003E040F21332214B1A60214B1B78D3
:105420001F2B08D03A2B0BD00A2B0DD14FF4517201
:105430001D4B1A6008E04FF451721C4B1A6003E0D8
:105440004FF451721A4B1A60C0F34432194B1A7060
:10545000C0F347125A7000F01F009872042199702F
:105460000222DA745975882119743C21D9704021BF
:10547000114B1970A3F21D331A6070473480044039
:105480007013FF1F0513FF1F7813FF1F7113FF1FFA
:105490000413FF1F6D07FF1F0CB004403890044039
:1054A00004D004406E07FF1F10B0044028A0044041
:1054B00000D0044000B0064021E400E01B4B9B7884
:1054C00003F0EC0300F00302134310F0040F18BFC5
:1054D00043F01003154A937000F00F03042B04D11E
:1054E0001346927942F040029A71104B5A7902F0B9
:1054F000EF0210F0100F18BF42F010020B4B5A7160
:105500009B7903F0EF0310F0200F18BF43F0100356
:10551000064A937110F4807F07D013465278D2B2B6
:10552000197841F0200119705A70704700B0064098
:1055300010B5214B1B6813F4006F3BD01F4B1B7839
:1055400013F0FF0F06D01D4CFFF744FA237813F039
:10555000FF0FF9D102221A4B1A600022194BDA70A0
:10556000194B1B78092B02D03B2B05D007E040F2EA
:105570000312164B1A6002E00022154B1A60154BFD
:105580001B7803F07F030A2B02D03A2B05D007E0EB
:1055900040F20312104B1A6002E000220F4B1A6017
:1055A00000230F4A13700F4A13700F4B1B680BB187
:1055B00001221A7010BD00BF348004400413FF1F85
:1055C00084E100E000B006406D07FF1F0CB004400E
:1055D00004D004406E07FF1F10B0044000D0044008
:1055E0007013FF1F0513FF1F0013FF1F10B50446A4
:1055F000094A137813F0FF0FFBD120460121FEF773
:1056000011FA20460021FEF7E9F9044B53F8342043
:10561000034B1A6010BD00BF0413FF1F8CB10000C4
:105620007413FF1F10B40C4609B140F08000184BF2
:105630001B78984228D0174A126812F4006F21D0C4
:1056400003F07F030A2B02D03A2B04D006E000229D
:10565000114B1A6002E00022104B1A60002C0CBFA4
:105660004422602200F07F030A2B02D03A2B05D09F
:1056700008E042F44072084B1A6003E042F44072C2
:10568000064B1A60024B18705DF8044B704700BF60
:105690006E07FF1F3480044010B0044000D0044067
:1056A000124B1B78984220D0114A126812F4006FF6
:1056B00019D0092B02D03B2B04D006E000220D4B61
:1056C0001A6002E000220C4B1A60092802D03B2825
:1056D00005D008E040F21332064B1A6003E040F2B6
:1056E0001332054B1A60014B187070476D07FF1F8E
:1056F000348004400CB0044004D0044010B50D4B7D
:105700001B6813F4006F12D03F280CD80A4C0B4BC7
:1057100053F8303023600121FEF784F9236800221A
:105720001A70012010BD0020034B186010BD00202E
:1057300010BD00BF348004400013FF1F8CB1000077
:10574000114B1B6813F4006F1BD0172804D140F2D3
:1057500002320E4B1A600DE03C2804D140F20232B6
:105760000B4B1A6006E00B4B5A7B02F0FE025A7399
:1057700000207047074B5A7B42F001025A73012008
:1057800070470020704700BF3480044008B00440D8
:1057900008D0044000B006402DE9F04107461F4BF9
:1057A0001B6813F4006F37D01D4B1B680BB101222F
:1057B0001A701C4B1C780134282C28BF00241A4D69
:1057C0001A4EDFF86C8017E0FFF7F8F940280FDC7D
:1057D000337913F0800F0FD02B780133282B28BF9B
:1057E000002318F80320D2B2F271DBB22B7003E071
:1057F000FF2801DDFFF7EEF82B78DBB29C42E3D007
:10580000FFB20B4B1F5501220A4B1A70E4B2054B35
:105810001C70BC22054BDA70BDE8F0813480044076
:105820007413FF1F7813FF1F7113FF1F00B0064092
:105830000813FF1F0413FF1F2DE9F84F0746284BDD
:105840001B6813F4006F49D0264B1B680BB1012273
:105850001A7007EB010B5F453DD2DFF89890224E9E
:10586000DFF88C80DFF890A099F800400134282CF4
:1058700028BF00243578EDB2A54220D1BC2388F89A
:105880000330FFF79BF9402811DC98F8043013F03F
:10589000800F10D033780133282B28BF00231AF84B
:1058A0000320D2B288F80720DBB2337003E0FF2870
:1058B00001DDFFF78FF83378DBB29D42E1D017F8B6
:1058C000013B0AF804300122084B1A70E4B289F84F
:1058D00000405F45C8D1BC22054BDA70BDE8F88FA7
:1058E000348004407413FF1F7113FF1F0413FF1F44
:1058F00000B006407813FF1F0813FF1F10B5064BBA
:105900001B7813F0FF0F06D0034CFFF763F82378E2
:1059100013F0FF0FF9D110BD0413FF1F064B1B78C6
:10592000DBB2064A1278D2B293422CBF273202F180
:10593000FF32D01A704700BF7813FF1F7113FF1F8B
:10594000054B1878C0B2054B1B78DBB2984238BFC4
:105950004030C01A704700BF7013FF1F0513FF1FB0
:1059600010B4184B1A78D2B2174B1B78DBB29A429C
:1059700018D001333F2B18D81449C85CC0B2DCB230
:1059800011490C7012490968C9B19A4203D300E069
:105990000023D31A01E04032D31A1A2B0FDC002364
:1059A0000B700CE04FF0FF3009E0084B1878C0B2E4
:1059B0000021054B1970064B19680029E8D15DF8E4
:1059C000044B70477013FF1F0513FF1F3013FF1F99
:1059D0000013FF1F094B1A78D2B2094B1B78DBB2B8
:1059E0009A4207D00133402B28BF0023054AD05CE0
:1059F000C0B270474FF0FF30704700BF7013FF1FF9
:105A00000513FF1F3013FF1F0D4B1B6813F4006FAE
:105A100014D00C4BDA7802F0CB02DA7040225A74C0
:105A2000DA7842F03402DA70074B1A78D2B2074BB8
:105A30001A70074B1B680BB100221A70704700BF29
:105A40003480044000B006400513FF1F7013FF1F91
:105A50000013FF1F70B43D4B1B7913F0300F33D090
:105A600072B63A4B9B7D03F0FF022BB9374BDA79C4
:105A700040225A7462B627E062B6354B1978C9B233
:105A8000344B1C78E4B2314D334EEB79D8B24B1C19
:105A9000402B28BF0023A3421CBFF0541946531EBD
:105AA00013F0FF02F1D1CAB2294B1A702B4B1B68BD
:105AB00053B1A1422EBFC4EB0101C4F14004091946
:105AC0002729C4BF01221A70204BDA78D2B212F013
:105AD000800F27D01B7913F0800F23D0204B1C7828
